:100000000C9463000C948B000C948B000C94F604FD
:100010000C94F6040C94F6040C948B000C948B0056
:100020000C948B000C948B000C948B000C948B0024
:100030000C948B000C948B000C948B000C948B0014
:100040000C9426030C948B000C9496030C94700370
:100050000C948B000C948B000C948B000C948B00F4
:100060000C94C8030C948B000000000800020100EF
:100070000003040700000000000000000000000072
:10008000250028002B0000000000240027002A0083
:1000900000000000230026002900040404040404D6
:1000A0000404020202020202030303030303010227
:1000B00004081020408001020408102001020408F6
:1000C000102070053A0811241FBECFEFD8E0DEBF24
:1000D000CDBF11E0A0E0B1E0E2E2F1E102C00590A5
:1000E0000D92AA3BB107D9F723E0AAEBB1E001C01A
:1000F0001D92AE34B207E1F710E0C2E6D0E004C0D2
:100100002197FE010E946C08C136D107C9F70E94F1
:1001100064060C9484080C940000CF92DF92EF9256
:10012000FF920F931F93CF93DF936C017A018B01A2
:10013000C0E0D0E0CE15DF0589F0D8016D918D01CA
:10014000D601ED91FC910190F081E02DC601099559
:10015000892B11F47E0102C02196ECCFC701DF91FB
:10016000CF911F910F91FF90EF90DF90CF90089566
:100170000895FC01538D448D252F30E0842F90E0AD
:10018000821B930B541710F0CF9608950197089592
:10019000FC01918D828D981761F0828DDF01A80F8F
:1001A000B11D5D968C91928D9F5F9F73928F90E0B1
:1001B00008958FEF9FEF0895FC01918D828D981720
:1001C00031F0828DE80FF11D858D90E008958FEF5D
:1001D0009FEF0895FC01918D228D892F90E0805C26
:1001E0009F4F821B91098F739927089586E892E0AB
:1001F0000E94EA0021E0892B09F420E0822F089573
:10020000FC01848DDF01A80FB11DA35ABF4F2C91B3
:10021000848D90E001968F739927848FA689B78982
:100220002C93A089B1898C9180648C93938D848D5B
:10023000981306C00288F389E02D80818F7D80832A
:100240000895EF92FF920F931F93CF93DF93EC01EA
:1002500081E0888F9B8D8C8D981305C0E889F98982
:10026000808185FD24C0F62E0B8D10E00F5F1F4F9F
:100270000F731127E02E8C8DE8120CC00FB607FC0F
:10028000FACFE889F989808185FFF5CFCE010E94F8
:100290000001F1CF8B8DFE01E80FF11DE35AFF4FF6
:1002A000F0820B8FEA89FB898081806207C0EE892A
:1002B000FF896083E889F98980818064808381E097
:1002C00090E0DF91CF911F910F91FF90EF900895F3
:1002D000CF93DF93EC01888D8823C9F0EA89FB89ED
:1002E000808185FD05C0A889B9898C9186FD0FC0E4
:1002F0000FB607FCF5CF808185FFF2CFA889B989B9
:100300008C9185FFEDCFCE010E940001E7CFDF91F8
:10031000CF91089580E090E0892B29F00E94F600AB
:1003200081110C940000089590E0FC01E859FF4F02
:100330003491FC01E255FF4F2491FC01E656FF4F3A
:10034000E491EE2309F43BC0332339F1333091F0CB
:1003500038F43130A9F0323001F584B58F7D12C008
:10036000373091F03830A1F03430B9F4809180000A
:100370008F7D03C0809180008F77809380000DC0B7
:1003800084B58F7784BD09C08091B0008F7703C09A
:100390008091B0008F7D8093B000F0E0EE0FFF1FE2
:1003A000E458FF4FA591B4918FB7F894EC91611187
:1003B00003C020952E2301C02E2B2C938FBF0895B0
:1003C00085ED8093BC008091BC0084FDFCCF109231
:1003D0004302089540911D02262F30E0240F311D65
:1003E00021323105DCF4209143022430C9F4FC01B0
:1003F00080E090E0861758F430911D022191DC01D5
:10040000A550BE4FA30FB11D2C930196F3CF809141
:100410001D02680F60931D0280E0089581E0089539
:1004200082E0089508958FEF9FEF08958FEF9FEF7B
:1004300008958091FA0190E0919581959109089530
:10044000CF93DF9300D0CDB7DEB7CB01642F4983C4
:100450005A830E94EA014981842F5A81952F0F9077
:100460000F90DF91CF910895CF93DF931F92CDB777
:10047000DEB7698361E0CE0101960E94EA0181E066
:1004800090E00F90DF91CF91089520916B02309111
:100490006C022817390771F49091690280916A0201
:1004A000981741F0E0916902F0E0E654FE4F808138
:1004B00090E008958FEF9FEF08951F93CF93DF9300
:1004C000DC015C962D913C915D972115310539F445
:1004D00081E090E013969C938E9312973DC05196C5
:1004E000ED91FC91529750969C915097892F809551
:1004F0001FB75E964C915E9741FB772770F941FDDF
:100500006095F8944081772311F0492B01C048236E
:100510004083E9012197F1F748E0508160FF02C074
:10052000592B01C058235083E9012197F1F76695B3
:10053000415099F7772321F090818923808303C06C
:100540008081982B90831FBF5C968D919C915D97C5
:100550000197F1F721E030E0C901DF91CF911F91C0
:10056000089520916B0230916C022817390771F4BD
:1005700080916A022091690290E0805C9F4F821B0B
:10058000910960E470E00E944408089580E090E0E2
:10059000089520916B0230916C0228173907B9F445
:1005A0009091690280916A02981789F0E09169023E
:1005B000F0E0E654FE4F80812091690230E02F5F29
:1005C0003F4F2F7333272093690290E008958FEFF8
:1005D0009FEF0895E0916B02F0916C02E817F90724
:1005E00069F4A389B4899C918589809589238C932A
:1005F00010926C0210926B0281E0089580E00895E1
:10060000089580E090E00895009769F0FC01019062
:100610000020E9F73197AF01481B590BBC0186E870
:1006200092E00C948D0080E090E00895CF93DF93EA
:100630000E940403EC018EE491E00E9404038C0FFD
:100640009D1FDF91CF9108950E9472081F920F9213
:100650000FB60F9211242F933F938F939F93AF93D5
:10066000BF938091820290918302A0918402B09105
:1006700085023091810223E0230F2D3720F401966B
:10068000A11DB11D05C026E8230F0296A11DB11DB5
:10069000209381028093820290938302A09384022C
:1006A000B093850280917D0290917E02A0917F029D
:1006B000B09180020196A11DB11D80937D0290939F
:1006C0007E02A0937F02B0938002BF91AF919F9171
:1006D0008F913F912F910F900FBE0F901F90189503
:1006E0001F920F920FB60F9211242F933F934F93A7
:1006F0005F936F937F938F939F93AF93BF93EF938A
:10070000FF9386E892E00E940001FF91EF91BF9174
:10071000AF919F918F917F916F915F914F913F9199
:100720002F910F900FBE0F901F9018951F920F9250
:100730000FB60F9211242F938F939F93EF93FF93F4
:10074000E0919602F09197028081E0919C02F091F5
:100750009D0282FD12C0908180919F028F5F8F73F6
:100760002091A002821751F0E0919F02F0E0EA5739
:10077000FD4F958F80939F0201C08081FF91EF9183
:100780009F918F912F910F900FBE0F901F901895F2
:100790001F920F920FB60F9211242F933F934F93F6
:1007A0005F936F937F938F939F93AF93BF93EF93D9
:1007B000FF938091B900887F803609F49CC068F56A
:1007C000883209F45BC090F4803109F454C038F4E5
:1007D000882309F4F6C0883009F44DC0F6C088318A
:1007E00009F44CC0803209F45DC0EFC0803409F4D4
:1007F00068C048F4803309F455C0883309F0E5C077
:1008000080934202D8C0803509F44FC0883509F47E
:100810005DC0883409F0D9C0D6C0883909F4C7C092
:10082000A8F4883709F467C038F4883609F463C03F
:10083000803709F460C0C9C0883809F4B8C080396D
:1008400009F45FC0803809F0C0C05BC0803B09F488
:1008500086C038F4803A09F466C0883A09F47FC04B
:10086000B4C0803C09F4A7C0883C09F4A4C0883B0C
:1008700009F48AC0AAC08091680210C090916702F2
:1008800080916602981770F5E091670281E08E0F03
:1008900080936702F0E0EA5BFD4F80818093BB00AC
:1008A00085EC86C0809342028EC0E091670281E0B1
:1008B0008E0F809367028091BB00F0E0EA5BFD4FF2
:1008C000808390916702809166026EC0E09167021A
:1008D00081E08E0F809367028091BB00F0E0EA5BBD
:1008E000FD4F80838091450281116DC081E080932E
:1008F000440284EA61C083E0809343021092410283
:10090000CFCF80914102803208F051C0E091410286
:1009100081E08E0F809341028091BB00F0E0EF5D9B
:10092000FD4F8083BDCF85EC8093BC0010924302C5
:1009300080914102803230F4E0914102F0E0EF5DBD
:10094000FD4F10826091410270E0E0911F02F09132
:10095000200281E292E009951092410236C084E0C3
:100960008093430210921E0210921D02E0911B021E
:10097000F0911C02099580911D02811105C081E052
:1009800080931D021092FB01E0911E0281E08E0F08
:1009900080931E02F0E0E550FE4F80818093BB0003
:1009A00090911E0280911D02981708F479CF85E876
:1009B0008093BC000AC085EC8093BC001092430277
:1009C00004C0109242020E94E001FF91EF91BF919A
:1009D000AF919F918F917F916F915F914F913F91D7
:1009E0002F910F900FBE0F901F9018951F920F928E
:1009F0000FB60F9211242F933F934F935F936F93F2
:100A00007F938F939F93AF93BF93EF93FF93E09167
:100A10006B02F0916C02309709F451C0968DA68557
:100A2000B785858591FF04C09C91892329F447C02F
:100A30009C91892309F043C0A389B4899C9185893D
:100A4000809589238C93868997890197F1F7608D2A
:100A5000718DA685B785558538E020E0CB010197DB
:100A6000F1F7822F90E095958795282F4C9145239B
:100A700009F02068315091F7868D81FD2095809195
:100A80006A0290E001968F739927309169023817B6
:100A900049F0A0916A02B0E0A654BE4F2C93809317
:100AA0006A0203C0868D8160868F828D938D019747
:100AB000F1F7A389B4899C918589892B8C93FF9147
:100AC000EF91BF91AF919F918F917F916F915F91C6
:100AD0004F913F912F910F900FBE0F901F9018953F
:100AE000CF93DF93109289021092880288EE93E0F0
:100AF000A0E0B0E080938A0290938B02A0938C02D6
:100B0000B0938D022CE131E030938702209386026E
:100B100025EC30E0309393022093920224EC30E0F5
:100B2000309395022093940220EC30E030939702AA
:100B30002093960221EC30E03093990220939802A2
:100B400022EC30E030939B0220939A0226EC30E0B6
:100B500030939D0220939C0210929F021092A0025B
:100B60001092A1021092A202109226031092250365
:100B70008093270390932803A0932903B0932A031B
:100B80002EE231E0309324032093230310923203AA
:100B9000109231038093330390933403A093350371
:100BA000B093360380E491E09093300380932F0359
:100BB0001092460310924503109248031092470387
:100BC00010924A031092490310924C0310924B0367
:100BD00060914D036E7F6D7F60934D0366956170EC
:100BE00081E0682783E00E949401E1EBF0E024912A
:100BF000EDE9F0E08491882399F090E0880F991F47
:100C0000FC01EA57FF4FA591B491FC01E458FF4F56
:100C1000859194918FB7F894EC91E22BEC938FBF70
:100C2000E1EBF0E0E491E0933F03EDE9F0E0E491E3
:100C3000F0E0EE0FFF1FE458FF4F859194919093E1
:100C4000410380934003E0EBF0E02491ECE9F0E015
:100C500084918823C1F090E0880F991FFC01EA5726
:100C6000FF4FC591D491FC01E458FF4FA591B49179
:100C70009FB7F8948881E22FE0958E2388838C912A
:100C8000E823EC939FBF80914D0381FD04C061E098
:100C900082E00E94940182E080933B03E0EBF0E06D
:100CA000E491E0933C03ECE9F0E0E491F0E0EE0F36
:100CB000FF1FE057FF4F8591949190933E038093DF
:100CC0003D03DF91CF910895789484B5826084BD0F
:100CD00084B5816084BD85B5826085BD85B5816040
:100CE00085BD80916E00816080936E0010928100BE
:100CF0008091810082608093810080918100816079
:100D00008093810080918000816080938000809139
:100D1000B10084608093B1008091B00081608093C5
:100D2000B00080917A00846080937A0080917A008C
:100D3000826080937A0080917A00816080937A004B
:100D400080917A00806880937A001092C100E091CF
:100D50009602F091970282E08083E0919202F091F6
:100D600093021082E0919402F091950280E18083D9
:100D700010929E02E0919A02F0919B0286E080839D
:100D8000E0919802F0919902808180618083E091E6
:100D90009802F0919902808188608083E0919802A6
:100DA000F0919902808180688083E0919802F091AF
:100DB000990280818F7D808310924A0310924903AB
:100DC0001092480310924703109246031092450375
:100DD0008DE991E090934C0380934B0390913B03FA
:100DE000963108F057C02DEB30E030934603209346
:100DF00045032BE931E030934803209347032CE26D
:100E000031E030934A0320934903209168009830E1
:100E100050F031E09E3008F430E081E001C0880FEE
:100E20003A95EAF701C084E0822B809368009830FD
:100E300038F09E3040F0963148F020E030E008C0B5
:100E40002DE630E005C02BE630E002C02CE630E0B5
:100E50003093430320934203983030F481E001C083
:100E6000880F9A95EAF70EC0292F30E09E3018F4CB
:100E70002850310902C02E50310981E001C0880F8D
:100E80002A95EAF78093440380914B0390914C0399
:100E90000197F1F78091490390914A03892B21F141
:100EA00080916B0290916C0223E08F329207E1F007
:100EB000009711F00E94EA0280914D038E7F80938B
:100EC0004D0310926A02109269028FE293E09093B0
:100ED0006C0280936B02E0914203F0914303908196
:100EE00080914403892B808301E712E08CE0F82E87
:100EF0009FEAE92ECC24C394D12CBB24B39433E0D5
:100F0000A32EF8012F2D11922A95E9F71092700265
:100F100010926F02C0916F02D0917002CC30D10557
:100F2000A0F58FE293E00E94B1021816190694F71B
:100F3000209791F08FE293E00E94C902FE01EF58E2
:100F4000FD4F8083682F86E892E00E942101219660
:100F5000D0937002C0936F028FE293E00E94C902A7
:100F60008F3A9105B9F680916F0290917002892BAA
:100F700089F6E09271026FEA86E892E00E94210110
:100F8000D0927002C0926F02C5CF10926E02109282
:100F90006D02C1E7D2E04E01F40161914F0186E894
:100FA00092E00E942101FCE78F16F2E09F06A1F774
:100FB00080916D0290916E022991822722E0CC37B8
:100FC000D207D1F790936E0280936D0220917C023C
:100FD00030E082179307F1F581E591E00E94160356
:100FE0004CE050E06CE071E081E792E00E9477080D
:100FF000892BE9F485E691E00E941603B09209017D
:10100000A0920A01E0E0F1E080E090E021918227E7
:1010100021E0EB30F207D1F780930B014CE050E078
:1010200060E071E08FE293E00E948D0017C0809134
:101030007702833099F08AE791E00E94040360917F
:10104000770286E892E00E9421018EE491E00E94FE
:10105000040304C081EA91E00E941603109270021A
:1010600010926F02F8012F2D11922A95E9F70E9434
:101070008A0147CF80E491E09093300380932F035F
:101080008FE293E00C94EA0297FB072E16F400948B
:1010900007D077FD09D00E94580807FC05D03EF420
:1010A000909581959F4F0895709561957F4F089514
:1010B000AA1BBB1B51E107C0AA1FBB1FA617B7077E
:1010C00010F0A61BB70B881F991F5A95A9F780959A
:1010D0009095BC01CD010895EE0FFF1F0590F4918E
:1010E000E02D099481E090E0F8940C948408FB01D1
:1010F000DC0104C08D910190801921F441505040D1
:10110000C8F7881B990B089510E0C2E6D0E004C030
:10111000FE010E946C082196C336D107C9F7F894E6
:02112000FFCFFF
:10112200AFB201010C01000E0F000000AFB20101CD
:101132000C01000A0B0C0D100000000021018D00B3
:10114200B9006801EA00C800DC00000000003402B7
:10115200200201031202190216021302000000000B
:101162005D028D000103B800B102C90245020D0AF9
:101172000044454255473A56414C49445F504B471B
:101182005F5243560044454255473A52454345490A
:10119200564544204B4E4F434B00504B475F44490A
:1011A200534341524445443A205041434B41474501
:1011B20020544F204F5448455220534C4156453AF3
:1011C2000044454255473A20494E56414C49445FF6
:0A11D200434845434B53554D0000C0
:00000001FF
