:100000000C9463000C948B000C948B000C94B90539
:100010000C94B9050C94B9050C948B000C948B00CE
:100020000C948B000C948B000C948B000C948B0024
:100030000C948B000C948B000C948B000C948B0014
:100040000C94E9030C948B000C9459040C94330425
:100050000C948B000C948B000C948B000C948B00F4
:100060000C948B040C948B0000000008000201002B
:100070000003040700000000000000000000000072
:10008000250028002B0000000000240027002A0083
:1000900000000000230026002900040404040404D6
:1000A0000404020202020202030303030303010227
:1000B00004081020408001020408102001020408F6
:1000C00010203306A70811241FBECFEFD8E0DEBFF3
:1000D000CDBF11E0A0E0B1E0ECEFF1E102C005908E
:1000E0000D92AA3EB107D9F723E0AAEEB1E001C014
:1000F0001D92AF3AB207E1F710E0C2E6D0E004C0CB
:100100002197FE010E94D908C136D107C9F70E9484
:1001100027070C94F1080C940000E7EEF2E0A089A8
:10012000B18982E08C93A485B5851C92A685B7859C
:1001300080E18C93108EA489B58986E08C93A28986
:10014000B3898C9180618C93A289B3898C918860EA
:100150008C93A289B3898C9180688C930288F389EF
:10016000E02D80818F7D80830895CF92DF92EF9282
:10017000FF920F931F93CF93DF936C017A018B0152
:10018000C0E0D0E0CE15DF0589F0D8016D918D017A
:10019000D601ED91FC910190F081E02DC601099509
:1001A000892B11F47E0102C02196ECCFC701DF91AB
:1001B000CF911F910F91FF90EF90DF90CF90089516
:1001C0000895FC01538D448D252F30E0842F90E05D
:1001D000821B930B541710F0CF9608950197089542
:1001E000FC01918D828D981761F0828DDF01A80F3F
:1001F000B11D5D968C91928D9F5F9F73928F90E061
:1002000008958FEF9FEF0895FC01918D828D9817CF
:1002100031F0828DE80FF11D858D90E008958FEF0C
:100220009FEF0895FC01918D228D892F90E0805CD5
:100230009F4F821B91098F739927089587EE92E053
:100240000E94120121E0892B09F420E0822F0895F9
:10025000FC01848DDF01A80FB11DA35ABF4F2C9163
:10026000848D90E001968F739927848FA689B78932
:100270002C93A089B1898C9180648C93938D848D0B
:10028000981306C00288F389E02D80818F7D8083DA
:100290000895EF92FF920F931F93CF93DF93EC019A
:1002A00081E0888F9B8D8C8D981305C0E889F98932
:1002B000808185FD24C0F62E0B8D10E00F5F1F4F4F
:1002C0000F731127E02E8C8DE8120CC00FB607FCBF
:1002D000FACFE889F989808185FFF5CFCE010E94A8
:1002E0002801F1CF8B8DFE01E80FF11DE35AFF4F7E
:1002F000F0820B8FEA89FB898081806207C0EE89DA
:10030000FF896083E889F98980818064808381E046
:1003100090E0DF91CF911F910F91FF90EF900895A2
:10032000CF93DF93EC01888D8823C9F0EA89FB899C
:10033000808185FD05C0A889B9898C9186FD0FC093
:100340000FB607FCF5CF808185FFF2CFA889B98968
:100350008C9185FFEDCFCE010E942801E7CFDF9180
:10036000CF91089580E090E0892B29F00E941E0132
:1003700081110C940000089590E0FC01E859FF4FB2
:100380003491FC01E255FF4F2491FC01E656FF4FEA
:10039000E491EE2309F43BC0332339F1333091F07B
:1003A00038F43130A9F0323001F584B58F7D12C0B8
:1003B000373091F03830A1F03430B9F480918000BA
:1003C0008F7D03C0809180008F77809380000DC067
:1003D00084B58F7784BD09C08091B0008F7703C04A
:1003E0008091B0008F7D8093B000F0E0EE0FFF1F92
:1003F000E458FF4FA591B4918FB7F894EC91611137
:1004000003C020952E2301C02E2B2C938FBF08955F
:1004100085ED8093BC008091BC0084FDFCCF1092E0
:100420007302089540914D02262F30E0240F311DB4
:1004300021323105DCF4209173022430C9F4FC012F
:1004400080E090E0861758F430914D022191DC0154
:10045000A55DBD4FA30FB11D2C930196F3CF8091E5
:100460004D02680F60934D0280E0089581E0089589
:1004700082E0089508958FEF9FEF08958FEF9FEF2B
:10048000089580912A0290E09195819591090895AF
:10049000CF93DF9300D0CDB7DEB7CB01642F498374
:1004A0005A830E9412024981842F5A81952F0F90FE
:1004B0000F90DF91CF910895CF93DF931F92CDB727
:1004C000DEB7698361E0CE0101960E94120281E0ED
:1004D00090E00F90DF91CF9108952091E502309147
:1004E000E6022817390771F49091E3028091E40243
:1004F000981741F0E091E302F0E0E651FE4F808171
:1005000090E008958FEF9FEF08951F93CF93DF93AF
:10051000DC015C962D913C915D972115310539F4F4
:1005200081E090E013969C938E9312973DC0519674
:10053000ED91FC91529750969C915097892F809500
:100540001FB75E964C915E9741FB772770F941FD8E
:100550006095F8944081772311F0492B01C048231E
:100560004083E9012197F1F748E0508160FF02C024
:10057000592B01C058235083E9012197F1F7669563
:10058000415099F7772321F090818923808303C01C
:100590008081982B90831FBF5C968D919C915D9775
:1005A0000197F1F721E030E0C901DF91CF911F9170
:1005B00008952091E5023091E6022817390771F479
:1005C0008091E4022091E30290E0805C9F4F821BC7
:1005D000910960E470E00E94B108089580E090E025
:1005E00008952091E5023091E60228173907B9F401
:1005F0009091E3028091E402981789F0E091E30280
:10060000F0E0E651FE4F80812091E30230E02F5F61
:100610003F4F2F7333272093E30290E008958FEF2D
:100620009FEF0895E091E502F091E602E817F907DF
:1006300069F4A389B4899C918589809589238C93D9
:100640001092E6021092E50281E0089580E008959C
:100650001092AB031092AA031092A9031092A80360
:100660001092A7031092A6038DE991E09093AD0339
:100670008093AC0390919C03963108F057C02DEB0A
:1006800030E03093A7032093A6032BE931E03093A9
:10069000A9032093A8032CE231E03093AB0320930D
:1006A000AA0320916800983050F031E09E3008F4A1
:1006B00030E081E001C0880F3A95EAF701C084E09C
:1006C000822B80936800983038F09E3040F096314D
:1006D00048F020E030E008C02DE630E005C02BE611
:1006E00030E002C02CE630E03093A4032093A30353
:1006F000983030F481E001C0880F9A95EAF70EC077
:10070000292F30E09E3018F42850310902C02E50B5
:10071000310981E001C0880F2A95EAF78093A5038B
:100720008091AC039091AD030197F1F78091AA03FA
:100730009091AB03892B21F18091E5029091E60223
:1007400023E080399207E1F0009711F00E94120334
:100750008091AE038E7F8093AE031092E4021092DC
:10076000E30280E993E09093E6028093E502E09152
:10077000A303F091A40390818091A503892B80832A
:100780000895089580E090E00895CF93DF93009757
:1007900079F0FC0101900020E9F73197AF01481B87
:1007A000590BBC0187EE92E00E94B500EC0102C03B
:1007B000C0E0D0E042E050E06AE871E087EE92E00D
:1007C0000E94B5008C0F9D1FDF91CF9108950E946C
:1007D000DF081F920F920FB60F9211242F933F93B1
:1007E0008F939F93AF93BF938091DF029091E0022C
:1007F000A091E102B091E2023091DE0223E0230FEA
:100800002D3720F40196A11DB11D05C026E8230F48
:100810000296A11DB11D2093DE028093DF0290930A
:10082000E002A093E102B093E2028091DA0290919B
:10083000DB02A091DC02B091DD020196A11DB11D89
:100840008093DA029093DB02A093DC02B093DD0286
:10085000BF91AF919F918F913F912F910F900FBEBC
:100860000F901F9018951F920F920FB60F921124A0
:100870002F933F934F935F936F937F938F939F93A8
:10088000AF93BF93EF93FF9387EE92E00E9428010E
:10089000FF91EF91BF91AF919F918F917F916F9158
:1008A0005F914F913F912F910F900FBE0F901F902E
:1008B00018951F920F920FB60F9211242F938F93BA
:1008C0009F93EF93FF93E091F702F091F8028081FC
:1008D000E091FD02F091FE0282FD12C090818091B4
:1008E00000038F5F8F7320910103821751F0E09115
:1008F0000003F0E0E951FD4F958F8093000301C0A4
:100900008081FF91EF919F918F912F910F900FBE5A
:100910000F901F9018951F920F920FB60F921124EF
:100920002F933F934F935F936F937F938F939F93F7
:10093000AF93BF93EF93FF938091B900887F803688
:1009400009F49CC068F5883209F45BC090F48031EA
:1009500009F454C038F4882309F4F6C0883009F447
:100960004DC0F6C0883109F44CC0803209F45DC036
:10097000EFC0803409F468C048F4803309F455C0EE
:10098000883309F0E5C080937202D8C0803509F43D
:100990004FC0883509F45DC0883409F0D9C0D6C08D
:1009A000883909F4C7C0A8F4883709F467C038F457
:1009B000883609F463C0803709F460C0C9C088383C
:1009C00009F4B8C0803909F45FC0803809F0C0C0AC
:1009D0005BC0803B09F486C038F4803A09F466C0F5
:1009E000883A09F47FC0B4C0803C09F4A7C0883CB1
:1009F00009F4A4C0883B09F48AC0AAC08091980277
:100A000010C09091970280919602981770F5E0912E
:100A1000970281E08E0F80939702F0E0EA58FD4F35
:100A200080818093BB0085EC86C0809372028EC06B
:100A3000E091970281E08E0F809397028091BB0036
:100A4000F0E0EA58FD4F80839091970280919602E2
:100A50006EC0E091970281E08E0F809397028091A3
:100A6000BB00F0E0EA58FD4F808380917502811150
:100A70006DC081E08093740284EA61C083E080935A
:100A8000730210927102CFCF80917102803208F010
:100A900051C0E091710281E08E0F809371028091CC
:100AA000BB00F0E0EF5AFD4F8083BDCF85EC809313
:100AB000BC001092730280917102803230F4E09198
:100AC0007102F0E0EF5AFD4F10826091710270E008
:100AD000E0914F02F091500281E592E00995109269
:100AE000710236C084E08093730210924E0210921D
:100AF0004D02E0914B02F0914C02099580914D021C
:100B0000811105C081E080934D0210922B02E0918B
:100B10004E0281E08E0F80934E02F0E0E55DFD4FC6
:100B200080818093BB0090914E0280914D02981776
:100B300008F479CF85E88093BC000AC085EC8093E7
:100B4000BC001092730204C0109272020E9408024C
:100B5000FF91EF91BF91AF919F918F917F916F9195
:100B60005F914F913F912F910F900FBE0F901F906B
:100B700018951F920F920FB60F9211242F933F9347
:100B80004F935F936F937F938F939F93AF93BF9395
:100B9000EF93FF93E091E502F091E602309709F4BC
:100BA00051C0968DA685B785858591FF04C09C911F
:100BB000892329F447C09C91892309F043C0A38964
:100BC000B4899C918589809589238C93868997899E
:100BD0000197F1F7608D718DA685B785558538E051
:100BE00020E0CB010197F1F7822F90E09595879552
:100BF000282F4C91452309F02068315091F7868DBC
:100C000081FD20958091E40290E001968F739927F1
:100C10003091E302381749F0A091E402B0E0A65108
:100C2000BE4F2C938093E40203C0868D8160868F33
:100C3000828D938D0197F1F7A389B4899C91858961
:100C4000892B8C93FF91EF91BF91AF919F918F91E1
:100C50007F916F915F914F913F912F910F900FBEB8
:100C60000F901F901895CF93DF931092EA02109285
:100C7000E90288EE93E0A0E0B0E08093EB0290936D
:100C8000EC02A093ED02B093EE0228E531E0309340
:100C9000E8022093E70225EC30E03093F402209341
:100CA000F30224EC30E03093F6022093F50220ECBE
:100CB00030E03093F8022093F70221EC30E03093DB
:100CC000FA022093F90222EC30E03093FC022093E8
:100CD000FB0226EC30E03093FE022093FD021092DE
:100CE000000310920103109202031092030310926A
:100CF0008703109286038093880390938903A093BF
:100D00008A03B0938B032AE631E030938503209366
:100D10008403109293031092920380939403909310
:100D20009503A0939603B09397038CE791E090937B
:100D30009103809390031092A7031092A603109240
:100D4000A9031092A8031092AB031092AA03109269
:100D5000AD031092AC036091AE036E7F6D7F609324
:100D6000AE036695617081E0682783E00E94BC0154
:100D7000E1EBF0E02491EDE9F0E08491882399F033
:100D800090E0880F991FFC01EA57FF4FA591B4919D
:100D9000FC01E458FF4F859194918FB7F894EC9142
:100DA000E22BEC938FBFE1EBF0E0E491E093A00342
:100DB000EDE9F0E0E491F0E0EE0FFF1FE458FF4FA3
:100DC000859194919093A2038093A103E0EBF0E0CE
:100DD0002491ECE9F0E084918823C1F090E0880F41
:100DE000991FFC01EA57FF4FC591D491FC01E458CB
:100DF000FF4FA591B4919FB7F8948881E22FE095B9
:100E00008E2388838C91E823EC939FBF8091AE035F
:100E100081FD04C061E082E00E94BC0182E0809319
:100E20009C03E0EBF0E0E491E0939D03ECE9F0E05B
:100E3000E491F0E0EE0FFF1FE057FF4F8591949192
:100E400090939F0380939E03DF91CF9108957894B0
:100E500084B5826084BD84B5816084BD85B58260BF
:100E600085BD85B5816085BD80916E008160809370
:100E70006E001092810080918100826080938100D9
:100E800080918100816080938100809180008160E9
:100E9000809380008091B10084608093B100809144
:100EA000B00081608093B00080917A00846080936C
:100EB0007A0080917A00826080937A0080917A0033
:100EC000816080937A0080917A00806880937A00B4
:100ED0001092C1000E9428030E948D0007EA12E0D0
:100EE00082E3F82E9FEAE92EDD24D3941092D902F2
:100EF000F8012F2D11922A95E9F7C091D902CC3033
:100F000078F587EE92E00E94120118161906ACF7E8
:100F1000CC2389F087EE92E00E94F000EC2FF0E005
:100F2000E955FD4F8083682F87EE92E00E944901CA
:100F3000CF5FC093D90287EE92E00E94F0008F3A13
:100F40009105D9F68091D9028111D7CFE092A702FD
:100F50006FEA87EE92E00E944901D092D902CDCF8C
:100F6000E7EAF2E080E090E02191822722E0E23B94
:100F7000F207D1F79093A6028093A5022091B202C6
:100F800030E08217930709F084C087EE92E00E9458
:100F9000900187EE92E00E949001E091F902F091B9
:100FA000FA0280818F7E8083E091F902F091FA024B
:100FB0008081877F8083E091F902F091FA0280813D
:100FC0008F778083E091F902F091FA0280818F7D22
:100FD000808380910103809300034CE050E068E43B
:100FE00071E087EA92E00E94E408892B29F44CE042
:100FF00050E068E471E00EC046E050E06CE371E060
:1010000087EA92E00E94E408892B49F44CE050E022
:101010006CE371E080E993E00E94B50037C046E0E0
:1010200050E060E371E087EA92E00E94E408892BD7
:1010300029F44CE050E060E371E0ECCF46E050E092
:1010400064E271E087EA92E00E94E408892B29F4C7
:101050004CE050E064E271E0DDCF46E050E068E152
:1010600071E087EA92E00E94E408892B29F44CE0C1
:1010700050E06CE071E0CECF46E050E06CE071E013
:1010800087EA92E00E94E408892B89F30E948D0090
:1010900006C00E948D008DE891E00E94C503109269
:1010A000D90280E993E00E94D902181619060CF0C3
:1010B00049C0C091D90280E993E0CC3068F40E9425
:1010C000F102EC2FF0E0E756FD4F80838091D902CA
:1010D0008F5F8093D902EDCF0E941203C9E9D2E05D
:1010E000FE0180E090E02191822722E0E43AF207BD
:1010F000D1F79093A6028093A5022091A40230E03C
:1011000082179307D9F480919E028130A1F448E0C0
:1011100050E060E071E089E992E00E94E408892BE8
:1011200089F4699187EE92E00E94490182E0C53A14
:10113000D807B9F707C085EA91E002C08CEC91E0CE
:101140000E94C5030E9428030E94B201CFCE8CE703
:1011500091E0909391038093900380E993E00C9445
:10116000120397FB072E16F4009407D077FD09D0E1
:101170000E94C50807FC05D03EF4909581959F4FCD
:101180000895709561957F4F0895AA1BBB1B51E18F
:1011900007C0AA1FBB1FA617B70710F0A61BB70BE7
:1011A000881F991F5A95A9F780959095BC01CD018C
:1011B0000895EE0FFF1F0590F491E02D099481E052
:1011C00090E0F8940C94F108FB01DC0104C08D91CF
:1011D0000190801921F441505040C8F7881B990BA9
:1011E000089510E0C2E6D0E004C0FE010E94D908D4
:0C11F0002196C336D107C9F7F894FFCF51
:1011FC00AFB201010C01000E0F000000AFB20106EE
:10120C000C01000000000000AFB201050C01000051
:10121C0000000000AFB201040C010000000000004F
:10122C00AFB201030C01000000000000AFB20102DC
:10123C000C01000000000000AFB201010C01000A1B
:10124C000B0C0D10000000004901B500E1009001ED
:10125C001201F0000401000000005C024802C2030D
:10126C003A0241023E023B02000000008502B5003A
:10127C00C203E000D902F1026D020D0A004445429E
:10128C0055473A20494E56414C4944204348454322
:10129C004B53554D00504B475F44495343415244C7
:1012AC0045443A205041434B41474520544F204F31
:1012BC0054484552204D415354455200504B475FC2
:1012CC0044494341524445443A20434845434B53D7
:0A12DC00554D204552524F520000BC
:00000001FF
