:100000000C9463000C948B000C948B000C946D0387
:100010000C946D030C946D030C948B000C948B006A
:100020000C948B000C948B000C948B000C948B0024
:100030000C948B000C948B000C948B000C948B0014
:100040000C9423030C948B000C94A5010C94500980
:100050000C948B000C948B000C948B000C948B00F4
:100060000C948B000C948B000000000024002700EF
:100070002A0000000008000201000003040700003D
:1000800000000000000000000000250028002B00F8
:1000900000000000230026002900040404040404D6
:1000A0000404020202020202030303030303010227
:1000B00004081020408001020408102001020408F6
:1000C00010209909760911241FBECFEFD8E0DEBFBA
:1000D000CDBF27E0A8EBB6E001C01D92A33DB2075B
:1000E000E1F716E0A0E0B1E0E4EFF0E202C0059035
:1000F0000D92A83BB107D9F710E0C2E6D0E004C0EA
:100100002197FE010E945B0EC136D107C9F70E94FC
:100110005A0A0C946D100C940000FC01538D448D10
:10012000252F30E0842F90E0821B930B541710F0A2
:10013000CF96089501970895FC01918D828D9817AF
:1001400061F0828DDF01A80FB11D5D968C91928DBB
:100150009F5F9F73928F90E008958FEF9FEF0895B8
:10016000FC01918D828D981731F0828DE80FF11D81
:10017000858D90E008958FEF9FEF0895FC01918D9C
:10018000228D892F90E0805C9F4F821B91098F7395
:100190009927089580E090E0892B29F00E940608B5
:1001A00081110C94000008953FB7F8948091FD06EA
:1001B0009091FE06A091FF06B091000726B5A89B7E
:1001C00005C02F3F19F00196A11DB11D3FBFBA2FE9
:1001D000A92F982F8827820F911DA11DB11DBC0149
:1001E000CD0142E0660F771F881F991F4A95D1F70E
:1001F000089520910307309104072817390771F4F7
:100200009091010780910207981741F0E091010752
:10021000F0E0E854F94F808190E008958FEF9FEF70
:10022000089508951F93CF93DF93DC015C962D9181
:100230003C915D972115310539F481E090E01396EA
:100240009C938E9312973DC05196ED91FC915297DD
:1002500050969C915097892F80951FB75E964C9130
:100260005E9741FB772770F941FD6095F8944081D6
:10027000772311F0492B01C048234083E9012197DE
:10028000F1F748E0508160FF02C0592B01C05823AC
:100290005083E9012197F1F76695415099F777234B
:1002A00021F090818923808303C08081982B9083E3
:1002B0001FBF5C968D919C915D970197F1F721E0AE
:1002C00030E0C901DF91CF911F910895209103077C
:1002D000309104072817390771F4809102072091A3
:1002E000010790E0805C9F4F821B910960E470E001
:1002F0000E94110E089580E090E008952091030778
:100300003091040728173907B9F4909101078091BB
:100310000207981789F0E0910107F0E0E854F94FDF
:1003200080812091010730E02F5F3F4F2F733327EB
:100330002093010790E008958FEF9FEF08950895AF
:1003400080E090E008950E9458101F920F920FB61F
:100350000F9211242F938F939F93EF93FF93E0912C
:100360001507F09116078081E0911B07F0911C079B
:1003700082FD12C0908180911E078F5F8F73209144
:100380001F07821751F0E0911E07F0E0EB5FF84F76
:10039000958F80931E0701C08081FF91EF919F91FF
:1003A0008F912F910F900FBE0F901F901895FC0109
:1003B000848DDF01A80FB11DA35ABF4F2C91848DEE
:1003C00090E001968F739927848FA689B7892C9323
:1003D000A089B1898C9180648C93938D848D9813BE
:1003E00006C00288F389E02D80818F7D8083089587
:1003F000EF92FF920F931F93CF93DF93EC0181E075
:10040000888F9B8D8C8D981305C0E889F989808130
:1004100085FD24C0F62E0B8D10E00F5F1F4F0F736C
:100420001127E02E8C8DE8120CC00FB607FCFACF16
:10043000E889F989808185FFF5CFCE010E94D70137
:10044000F1CF8B8DFE01E80FF11DE35AFF4FF082D3
:100450000B8FEA89FB898081806207C0EE89FF8962
:100460006083E889F98980818064808381E090E0FD
:10047000DF91CF911F910F91FF90EF900895CF934F
:10048000DF93EC01888D8823C9F0EA89FB8980819C
:1004900085FD05C0A889B9898C9186FD0FC00FB66E
:1004A00007FCF5CF808185FFF2CFA889B9898C91AF
:1004B00085FFEDCFCE010E94D701E7CFDF91CF912D
:1004C000089590E0FC01EE58FF4F3491FC01E25595
:1004D000FF4F2491FC01E656FF4FE491EE2309F40F
:1004E0003BC0332339F1333091F038F43130A9F087
:1004F000323001F584B58F7D12C0373091F038303D
:10050000A1F03430B9F4809180008F7D03C08091D8
:1005100080008F77809380000DC084B58F7784BD75
:1005200009C08091B0008F7703C08091B0008F7DAB
:100530008093B000F0E0EE0FFF1FEA57FF4FA59148
:10054000B4918FB7F894EC91611103C020952E23DC
:1005500001C02E2B2C938FBF0895CF93DF9390E093
:10056000FC01E255FF4F2491FC01E656FF4F8491B8
:10057000882361F190E0880F991FFC01E859FF4F33
:10058000C591D491FC01EA57FF4FA591B491611137
:1005900009C09FB7F8948881209582238883EC91C5
:1005A0002E230BC0623061F49FB7F8943881822FFC
:1005B000809583238883EC912E2B2C939FBF06C0BC
:1005C0008FB7F894E8812E2B28838FBFDF91CF91CE
:1005D00008958F929F92AF92BF92CF92DF92EF9247
:1005E000FF926B017C010E94D4004B015C01C1149D
:1005F000D104E104F104F1F00E94D400DC01CB014C
:1006000088199909AA09BB09883E9340A105B1053B
:1006100070F321E0C21AD108E108F10888EE880ED3
:1006200083E0981EA11CB11CC114D104E104F104A3
:1006300019F7DDCFFF90EF90DF90CF90BF90AF9094
:100640009F908F9008951F920F920FB60F921124D2
:100650002F933F938F939F93AF93BF938091F9060E
:100660009091FA06A091FB06B091FC063091F80635
:1006700023E0230F2D3720F40196A11DB11D05C0E5
:1006800026E8230F0296A11DB11D2093F806809342
:10069000F9069093FA06A093FB06B093FC068091AE
:1006A000FD069091FE06A091FF06B091000701960D
:1006B000A11DB11D8093FD069093FE06A093FF0639
:1006C000B0930007BF91AF919F918F913F912F9170
:1006D0000F900FBE0F901F9018951F920F920FB69C
:1006E0000F9211242F933F934F935F936F937F93B8
:1006F0008F939F93AF93BF93EF93FF93E091030783
:10070000F0910407309709F451C0968DA685B785FE
:10071000858591FF04C09C91892329F447C09C9151
:10072000892309F043C0A389B4899C918589809568
:1007300089238C93868997890197F1F7608D718D54
:10074000A685B785558538E020E0CB010197F1F704
:10075000822F90E095958795282F4C91452309F09D
:100760002068315091F7868D81FD20958091020798
:1007700090E001968F73992730910107381749F05F
:10078000A0910207B0E0A854B94F2C9380930207C0
:1007900003C0868D8160868F828D938D0197F1F7DE
:1007A000A389B4899C918589892B8C93FF91EF91C2
:1007B000BF91AF919F918F917F916F915F914F9179
:1007C0003F912F910F900FBE0F901F90189561E0F1
:1007D0008DE00E94610268EE73E080E090E00E948C
:1007E000E90260E08DE00C94610282EA97E00E94E9
:1007F0006601892B29F082EA97E00E947E01089524
:1008000080E008950F931F93CF93DF938C01C1ED88
:10081000D7E082EA97E00E946601892B89F461E0C3
:1008200070E080E090E00E94E902219791F78CE26D
:1008300091E00E947008C8010E947208C0E001C0E7
:10084000C1E061E070E080E090E00E94E9028C2F5E
:10085000DF91CF911F910F9108951F93CF93DF9355
:1008600000D000D000D0CDB7DEB7182F88E591E0DA
:100870000E94620867E582EA97E00E9412016BEA33
:1008800082EA97E00E94120166E382EA97E00E9402
:100890001201612F82EA97E00E94120166E671E080
:1008A000CE0101960E943B09CE0101960E940204EE
:1008B000182FCE0101960E941C091123C9F00E9435
:1008C000F503182F843129F483E791E00E94620830
:1008D0000FC08EE891E00E947008612F70E080E008
:1008E00090E040E10E94870881EB91E00E9450086F
:1008F00026960FB6F894DEBF0FBECDBFDF91CF9125
:100900001F910895FF920F931F93CF93DF9300D011
:1009100000D000D0CDB7DEB78C0184EB91E00E940F
:100920006208F801F480C8010E94720885EC91E029
:100930000E9470086F2D70E080E090E04AE00E9415
:10094000870881EB91E00E94500864E670E080E047
:1009500090E00E94E90267E582EA97E00E941201B6
:100960006BEA82EA97E00E9412016CE382EA97E068
:100970000E9412016F2D82EA97E00E94120160E04E
:1009800082EA97E00E94120162ED71E0CE010196C9
:100990000E943B09CE0101960E940204F82ECE016E
:1009A00001960E941C09FF2009F46AC00E94F50309
:1009B0008E3109F065C067E582EA97E00E94120176
:1009C0006BEA82EA97E00E9412016DE282EA97E008
:1009D0000E941201F801448155816081718182EA8F
:1009E00097E00E94DB0766EE71E0CE0101960E945F
:1009F0003B09CE0101960E940204CE0101960E949D
:100A00001C098BEF91E00E94700882EA97E00E9437
:100A10007E01BC01990F880B990B40E10E94870869
:100A20008DE192E00E94700867E582EA97E00E94FB
:100A300012016BEA82EA97E00E9412016DE382EAFA
:100A400097E00E9412016FE172E0CE0101960E94D0
:100A50003B09CE0101960E940204CE0101960E943C
:100A60001C0982EA97E00E947E01BC01990F880B65
:100A7000990B40E10E94870881EB91E00E945008A9
:100A800026960FB6F894DEBF0FBECDBFDF91CF9193
:100A90001F910F91FF9008951F93CF93DF9300D084
:100AA00000D000D0CDB7DEB782E392E00E946208AA
:100AB00067E582EA97E00E9412016BEA82EA97E01A
:100AC0000E94120162E382EA97E00E94120160E450
:100AD00072E0CE0101960E943B09CE0101960E9470
:100AE0000204182FCE0101960E941C09112369F0FF
:100AF0000E94F503843129F48AE492E00E9462089E
:100B000004C085E692E00E94700826960FB6F8941D
:100B1000DEBF0FBECDBFDF91CF911F9108951F9310
:100B2000CF93DF9300D000D000D0CDB7DEB78BE7F6
:100B300092E00E94620867E582EA97E00E94120153
:100B40006BEA82EA97E00E94120161E382EA97E091
:100B50000E9412016DE872E0CE0101960E943B09ED
:100B6000CE0101960E940204182FCE0101960E9428
:100B70001C09112369F00E94F503843129F48FE9DF
:100B800092E00E94620804C081EB92E00E9470082B
:100B900026960FB6F894DEBF0FBECDBFDF91CF9182
:100BA0001F9108951F93CF93DF9300D000D000D002
:100BB000CDB7DEB78CEC92E00E94620867E582EA6E
:100BC00097E00E9412016BEA82EA97E00E9412010C
:100BD00060E382EA97E00E94120160EF72E0CE01CA
:100BE00001960E943B09CE0101960E940204182F33
:100BF000CE0101960E941C09112369F00E94F503A1
:100C0000843129F487E093E00E94620804C08DE1FA
:100C100093E00E94700826960FB6F894DEBF0FBED0
:100C2000CDBFDF91CF911F910895CF93DF93EC015A
:100C30008AE393E00E947008CE010E94720867E583
:100C400082EA97E00E9412016BEA82EA97E00E9432
:100C500012016FE282EA97E00E9412016FE282EADB
:100C600097E00E9412014C815D816881798182EA5E
:100C700097E00E94DB0760E082EA97E00E941201A1
:100C800064E170E080E090E0DF91CF910C94E902A4
:100C900067E582EA97E00E9412016BEA82EA97E038
:100CA0000E94120165E082EA97E00E9412018FE43F
:100CB00093E00E94620868EC70E080E090E00C94A1
:100CC000E902CF92DF92EF92FF92CF93DF9300D0B1
:100CD00000D000D0CDB7DEB77C010E9448060E944C
:100CE000C8080E94D2050E948F05B701CE01019667
:100CF0000E942109CE0101960E941506CE0101969F
:100D00000E941C090E944C0582E793E00E94620841
:100D100067E582EA97E00E9412016BEA82EA97E0B7
:100D20000E9412016CE082EA97E00E94120168E6DC
:100D300082EA97E00E94120164E670E080E090E0B1
:100D40000E94E90284E893E00E94700882EA97E03A
:100D50000E946601892B31F082EA97E00E947E01B1
:100D60006C0102C0C12CD12C82EA97E00E9466017E
:100D7000892B69F082EA97E00E947E012FEFAC0197
:100D8000249FC001259F900D1124C80ED91E82EA10
:100D900097E00E946601892B81F082EA97E00E9429
:100DA0007E0121E03EEFAC01429FC001439F900DC8
:100DB000529F900D1124C80ED91E82EA97E00E941E
:100DC0006601892B81F082EA97E00E947E012FEF75
:100DD00032E0AC01429FC001439F900D529F900DA5
:100DE0001124C80ED91E0D2C000CEE08FF08F7FECA
:100DF00014C0E0910507F09106070190F081E02D05
:100E00006DE285E097E0099566277727CB016C199D
:100E10007D098E099F094AE003C04AE0C701B60177
:100E20000E94870881EB91E00E9450086AE070E020
:100E300080E090E00E94E9028FE893E00E9462085F
:100E400067E582EA97E00E9412016BEA82EA97E086
:100E50000E9412016AE382EA97E00E94120160E4B4
:100E600082EA97E00E94120160E082EA97E00E9425
:100E700012016AEA73E0CE0101960E943B09CE019D
:100E800001960E940204F82ECE0101960E941C09D0
:100E9000FF2021F00E94F5038D31C1F081EB91E03C
:100EA0000E94500886EB93E00E94620880E00E9456
:100EB0002D0426960FB6F894DEBF0FBECDBFDF918E
:100EC000CF91FF90EF90DF90CF90089567E582EA91
:100ED00097E00E9412016BEA82EA97E00E941201F9
:100EE00067E282EA97E00E94120163EC73E0CE01B0
:100EF00001960E943B09CE0101960E940204F82E41
:100F0000CE0101960E941C09FF20D1F082EA97E0F1
:100F10000E947E0182EA97E00E946601892B81F09F
:100F200082EA97E00E947E01682F85E097E00E94A8
:100F3000F80161E070E080E090E00E94E902EACF11
:100F400067E582EA97E00E9412016BEA82EA97E085
:100F50000E9412016BE382EA97E00E9412016DE9A0
:100F600073E0CE0101960E943B09CE0101960E94DA
:100F70000204F82ECE0101960E941C09FF2009F4FC
:100F80008DCF0E94F503843109F088CF59CFCF93DC
:100F9000DF93EC0180ED93E00E94620883EB91E027
:100FA0000E946208CE010E94720887EE93E0DF91F2
:100FB000CF910C946208CF92DF92EF92FF920F9341
:100FC0001F93CF93DF936C017A018B01C0E0D0E0D7
:100FD000CE15DF0589F0D8016D918D01D601ED9117
:100FE000FC910190F081E02DC6010995892B11F447
:100FF0007E0102C02196ECCFC701DF91CF911F91F6
:101000000F91FF90EF90DF90CF90089585E097E0EB
:101010000E94BE0021E0892B09F420E0822F089570
:10102000EF92FF920F931F93CF93DF93EC017B011D
:101030008A0188819981009729F02A813B812417B0
:101040003507F8F4B8016F5F7F4F0E948E0F00974D
:1010500059F0998388831B830A832C813D81232B3C
:1010600081F4FC0110820DC088819981009711F0F4
:101070000E94F60E198218821D821C821B821A821F
:1010800007C01D830C83B701888199810E94661077
:10109000CE01DF91CF911F910F91FF90EF900895B6
:1010A000009769F0FC0101900020E9F73197AF014A
:1010B000481B590BBC0185E097E00C94DB0780E0EE
:1010C00090E00895CF93DF930E945008EC0181EBEC
:1010D00091E00E9450088C0F9D1FDF91CF910895E1
:1010E0000C945008CF93DF93FC01448155816081BB
:1010F000718185E097E00E94DB07EC0181EB91E0D4
:101100000E9450088C0F9D1FDF91CF9108958F9200
:101110009F92AF92BF920F931F93CF93DF93CDB760
:10112000DEB7A1970FB6F894DEBF0FBECDBF19A2F0
:10113000423008F44AE08E010F5D1F4F842E912C3F
:10114000A12CB12CA50194010E94250EE62FB90116
:10115000CA0101501109EA3014F4E05D01C0E95CF4
:10116000D801EC93232B242B252B61F7C8010E9477
:101170005008A1960FB6F894DEBF0FBECDBFDF9129
:10118000CF911F910F91BF90AF909F908F90089536
:1011900067E582EA97E00E9412016BEA82EA97E033
:1011A0000E94120165E182EA97E00E94120166E066
:1011B00082EA97E00E94120164E170E080E090E032
:1011C0000E94E90282EA97E00E946601892B71F190
:1011D00082EA97E00E947E018093CE078135B1F4C8
:1011E0008FE194E00E94620882EA97E00E947E010B
:1011F0008093CE07853139F481E494E00E9462083F
:101200000E94E70313C080E594E002C08FE694E0FB
:101210000E9470086091CE0770E080E090E040E1AD
:101220000E9487088DE694E00E94620864E170E005
:1012300080E090E00C94E902FC01808191810C94A3
:10124000F60EFB01DC0111961C921E9213961C9265
:101250001E92129715961C921E9214978617970746
:1012600049F0608171816115710521F044815581DA
:101270000C9410080895FC011182108213821282CE
:10128000158214826115710551F0FB010190002057
:10129000E9F73197AF01461B570B0C9410080895DE
:1012A0001F920F920FB60F9211242F933F934F93DB
:1012B0005F936F937F938F939F93AF93BF93EF93BE
:1012C000FF9385E097E00E94D701FF91EF91BF91D6
:1012D000AF919F918F917F916F915F914F913F91CE
:1012E0002F910F900FBE0F901F9018958EE191E0F7
:1012F0009093A3078093A20780910307909104071E
:10130000825A974071F4E091B507F091B607908149
:101310008091B707809589238083109204071092EB
:10132000030781EC97E00E941C0987EC97E00C947E
:101330001C09CF92DF92EF92FF9210920807109251
:10134000070798EEC92E93E0D92EE12CF12CC0921C
:101350000907D0920A07E0920B07F0920C078CE085
:1013600091E0909306078093050785EC90E09093B9
:1013700012078093110784EC90E0909314078093F8
:10138000130780EC90E0909316078093150781EC8B
:1013900090E0909318078093170782EC90E0909369
:1013A0001A078093190786EC90E090931C078093AE
:1013B0001B0710921E0710921F0710922007109211
:1013C00021076EEF73E087EC97E00E943B096CE128
:1013D00074E081EC97E00E943B091092A5071092FF
:1013E000A407C092A607D092A707E092A807F092A0
:1013F000A9078EE191E09093A3078093A207109232
:10140000B9071092B8071092BB071092BA07109252
:10141000BD071092BC071092BF071092BE076091E3
:10142000C0076E7F6D7F6093C0076695617081E035
:1014300068278BE00E94610261E08BE00E94AD02B0
:10144000E9EBF0E0E491E093B207E5EAF0E0E49143
:10145000F0E0EE0FFF1FEA57FF4F859194919093B4
:10146000B4078093B30760E08AE00E94AD028091E8
:10147000C00781FD04C061E08AE00E9461028AE049
:101480008093AE07E8EBF0E0E491E093AF07E4EA85
:10149000F0E0E491F0E0EE0FFF1FE057FF4F859181
:1014A00094919093B1078093B007FF90EF90DF90F5
:1014B000CF900895CF93DF93CDB7DEB762970FB685
:1014C000F894DEBF0FBECDBF789484B5826084BD32
:1014D00084B5816084BD85B5826085BD85B5816038
:1014E00085BD80916E00816080936E0010928100B6
:1014F0008091810082608093810080918100816071
:101500008093810080918000816080938000809131
:10151000B10084608093B1008091B00081608093BD
:10152000B00080917A00846080937A0080917A0084
:10153000826080937A0080917A00816080937A0043
:1015400080917A00806880937A001092C100E091C7
:101550001507F091160782E08083E0911107F09162
:1015600012071082E0911307F09114078FEC80832B
:1015700010921D07E0911907F0911A0786E0808309
:10158000E0911707F0911807808180618083E091D6
:101590001707F0911807808188608083E091170712
:1015A000F0911807808180688083E0911707F0919F
:1015B000180780818F7D80831092BD071092BC0731
:1015C0001092BB071092BA071092B9071092B80791
:1015D0008DE991E09093BF078093BE079091AE078D
:1015E000963108F057C02DEB30E03093B9072093C7
:1015F000B8072BE931E03093BB072093BA072CE200
:1016000031E03093BD072093BC07209168009830EB
:1016100050F031E09E3008F430E081E001C0880FE6
:101620003A95EAF701C084E0822B809368009830F5
:1016300038F09E3040F0963148F020E030E008C0AD
:101640002DE630E005C02BE630E002C02CE630E0AD
:101650003093B6072093B507983030F481E001C08D
:10166000880F9A95EAF70EC0292F30E09E3018F4C3
:101670002850310902C02E50310981E001C0880F85
:101680002A95EAF78093B7078091BE079091BF072C
:101690000197F1F78091BC079091BD07892B49F123
:1016A000E0910307F091040787E0E23AF80709F1B7
:1016B000309739F0A389B4899C91858980958923D5
:1016C0008C938091C0078E7F8093C0071092020791
:1016D0001092010782EA97E0909304078093030732
:1016E000E091B507F091B60790818091B707892BFB
:1016F000808361E08DE00E94AD0260E08DE00E9499
:10170000610285E097E00E94BE00892B09F431C296
:1017100085E097E00E949C008093CD07813309F01B
:1017200042C06BE874E0CE0101960E943B09CE01F5
:1017300001960E94C707CE0101960E941C0967E529
:1017400082EA97E00E9412016BEA82EA97E00E9427
:10175000120166E082EA97E00E94120161E082EAEB
:1017600097E00E94120166EA74E0CE0101960E94A1
:101770003B09CE0101960E940204182FCE0101966A
:101780000E941C09112379F00E94F5038E3F39F461
:101790008AEB94E00E9462080E94E70304C080EE96
:1017A00094E00E9470088091CD07823381F460E05C
:1017B00075E0CE0101960E943B09CE0101960E9480
:1017C000C707CE0101960E941C090E94C80880919B
:1017D000CD07833381F467E175E0CE0101960E9465
:1017E0003B09CE0101960E94C707CE0101960E94D7
:1017F0001C090E9448068091CD07843309F071C00E
:101800006AE275E0CE0101960E943B09CE01019685
:101810000E94C707CE0101960E941C0967EC77E081
:10182000CE0107960E9421096FE475E0CE010D9666
:101830000E943B090E9448060E94C8080E94D205E7
:101840000E948F05BE01635F7F4FCE0101960E940B
:101850002109CE0101960E941506CE0101960E9433
:101860001C0967E582EA97E00E9412016BEA82EAAE
:1018700097E00E94120164E382EA97E00E9412015D
:1018800069E575E0CE0101960E943B09CE01019603
:101890000E940204182FCE0101960E941C091123F8
:1018A00009F483C10E94F503843109F07EC1BE01B1
:1018B000695F7F4FCE0101960E942109CE010196FA
:1018C0000E948204CE0101960E941C0981E00E94C0
:1018D0002D04CE010D960E941C09CE0107960E9490
:1018E0001C098091CD078533E1F467E675E0CE01F0
:1018F00001960E943B09CE0101960E94C707CE01C6
:1019000001960E941C096FE475E0CE0101960E94C9
:101910003B09CE0101960E946106CE0101960E940C
:101920001C098091CD07863309F089C066E875E00F
:10193000CE0101960E943B09CE0101960E94C70785
:10194000CE0101960E941C0961EC77E0CE0107965A
:101950000E9421096FE475E0CE010D960E943B09BB
:101960000E9448060E94C8080E94D2050E948F0566
:10197000BE01635F7F4FCE0101960E942109CE0117
:1019800001960E941506CE0101960E941C090E9434
:101990004C0567E582EA97E00E9412016BEA82EA51
:1019A00097E00E94120169E382EA97E00E94120127
:1019B0006FEF82EA97E00E9412016FEF82EA97E0F0
:1019C0000E9412016FEF82EA97E00E9412016FEF0E
:1019D00082EA97E00E9412016FEA75E0CE0101965B
:1019E0000E943B09CE0101960E940204182FCE01ED
:1019F00001960E941C09112341F00E94F5038431D5
:101A000021F484EC95E00E946208BE01695F7F4F7B
:101A1000CE0101960E942109CE0101960E94820406
:101A2000CE0101960E941C0981E00E942D04CE0186
:101A30000D960E941C09CE0107960E941C098091F8
:101A4000CD07873309F055C061EE75E0CE010196F0
:101A50000E943B09CE0101960E94C707CE01019664
:101A60000E941C096FE475E0CE0107960E943B09B5
:101A7000BE01695F7F4FCE0101960E942109CE0110
:101A800001960E941506CE0101960E941C0964E190
:101A900070E080E090E00E94E90267E582EA97E06A
:101AA0000E9412016BEA82EA97E00E94120165E34C
:101AB00082EA97E00E94120162E076E0CE01019690
:101AC0000E943B09CE0101960E940204182FCE010C
:101AD00001960E941C09112341F00E94F5038431F4
:101AE00021F480E196E00E946208CE0107960E94F0
:101AF0001C098091CD078833E1F46AE276E0CE01DB
:101B000001960E943B09CE0101960E94C707CE01B3
:101B100001960E941C096FE376E0CE0101960E94B7
:101B20003B09CE0101960E946106CE0101960E94FA
:101B30001C098091CD078933E1F469E476E0CE0198
:101B400001960E943B09CE0101960E94C707CE0173
:101B500001960E941C096EE576E0CE0101960E9476
:101B60003B09CE0101960E946106CE0101960E94BA
:101B70001C0982EA97E00E946601892B99F088E6A9
:101B800096E00E94700882EA97E00E947E01BC0104
:101B9000990F880B990B40E10E94870881EB91E037
:101BA0000E9450080E94CA00ACCD88E896E00E94CE
:101BB00062088CCE2F923F924F925F926F927F92EB
:101BC0008F929F92AF92BF92CF92DF92EF92FF924D
:101BD0000F931F93CF93DF93CDB7DEB7CA1BDB0BF9
:101BE0000FB6F894DEBF0FBECDBF09942A8839889E
:101BF00048885F846E847D848C849B84AA84B984A5
:101C0000C884DF80EE80FD800C811B81AA81B981B0
:101C1000CE0FD11D0FB6F894DEBF0FBECDBFED01C4
:101C2000089597FB072E16F4009407D077FD09D08E
:101C30000E94470E07FC05D03EF4909581959F4F7A
:101C40000895709561957F4F0895A1E21A2EAA1B01
:101C5000BB1BFD010DC0AA1FBB1FEE1FFF1FA2175C
:101C6000B307E407F50720F0A21BB30BE40BF50B59
:101C7000661F771F881F991F1A9469F760957095E2
:101C8000809590959B01AC01BD01CF010895AA1BE1
:101C9000BB1B51E107C0AA1FBB1FA617B70710F057
:101CA000A61BB70B881F991F5A95A9F78095909589
:101CB000BC01CD010895EE0FFF1F0590F491E02DBA
:101CC0000994CF93DF938230910510F482E090E085
:101CD000E091D107F091D20720E030E0C0E0D0E001
:101CE000309711F14081518148175907C0F04817CA
:101CF000590761F482819381209719F09B838A832D
:101D00002BC09093D2078093D10726C021153105AF
:101D100019F04217530718F49A01BE01DF01EF01D1
:101D20000280F381E02DDCCF2115310509F1281B5C
:101D3000390B2430310590F412968D919C911397B4
:101D40006115710521F0FB019383828304C0909398
:101D5000D2078093D107FD01329644C0FD01E20F06
:101D6000F31F81939193225031092D933C933AC0F4
:101D70002091CF073091D007232B41F4209102010D
:101D8000309103013093D0072093CF0720910001B9
:101D9000309101012115310541F42DB73EB7409135
:101DA000040150910501241B350BE091CF07F09100
:101DB000D007E217F307A0F42E1B3F0B28173907B3
:101DC00078F0AC014E5F5F4F2417350748F04E0F97
:101DD0005F1F5093D0074093CF078193919302C028
:101DE000E0E0F0E0CF01DF91CF9108950F931F93D2
:101DF000CF93DF93009709F48CC0FC0132971382D4
:101E000012820091D1071091D2070115110581F4BA
:101E100020813181820F931F2091CF073091D0070D
:101E20002817390779F5F093D007E093CF0771C0F1
:101E3000D80140E050E0AE17BF0750F412962D9144
:101E40003C911397AD012115310509F1D901F3CF6B
:101E50009D01DA013383228360817181860F971F90
:101E60008217930769F4EC0128813981260F371F07
:101E70002E5F3F4F318320838A819B8193838283AE
:101E8000452B29F4F093D207E093D10742C0139673
:101E9000FC93EE931297ED01499159919E01240F05
:101EA000351FE217F30771F480819181840F951F2C
:101EB000029611969C938E938281938113969C93A4
:101EC0008E931297E0E0F0E0D80112968D919C91EC
:101ED0001397009719F0F8018C01F6CF8D919C9122
:101EE00098012E5F3F4F820F931F2091CF073091B3
:101EF000D0072817390769F4309729F41092D207D0
:101F00001092D10702C0138212821093D00700935F
:101F1000CF07DF91CF911F910F910895A0E0B0E01E
:101F2000E4E9FFE00C94DE0DEC01009721F4CB0115
:101F30000E94610EB8C0FC01E60FF71F9C01225001
:101F40003109E217F30708F4ACC0D9010D911C91D7
:101F5000119706171707B0F00530110508F49FC058
:101F6000C80104978617970708F499C00250110911
:101F7000061B170B019311936D937C93CF010E9465
:101F8000F60E8DC05B01A01AB10A4C01800E911EA5
:101F9000A091D107B091D20740E050E0E12CF12CA4
:101FA000109709F44AC0A815B905D1F56D907C9039
:101FB0001197630182E0C80ED11CCA14DB0480F1C2
:101FC000A3014A195B096A0182E0C80ED11C12966E
:101FD000BC9012971396AC91B5E0CB16D10440F0AB
:101FE000B282A38351834083D9016D937C930AC04D
:101FF0000E5F1F4FC301800F911FF90191838083F2
:10200000EB2DFA2FE114F10431F0D7011396FC9374
:10201000EE93129744C0F093D207E093D1073FC0EC
:102020008D919C9111974817590708F4AC017D01D7
:1020300012960D90BC91A02DB3CF8091CF079091B7
:10204000D00788159905E1F446175707C8F4809121
:10205000000190910101009741F48DB79EB7409126
:10206000040150910501841B950BE817F907C8F48A
:10207000F093D007E093CF07F901718360830FC01D
:10208000CB010E94610E7C01009759F0A801BE01AE
:102090000E945D10CE010E94F60EC70104C0CE0161
:1020A00002C080E090E0CDB7DEB7EEE00C94FA0D10
:1020B00081E090E0F8940C946D10FB01DC0102C00B
:1020C00001900D9241505040D8F70895FB01DC017A
:1020D00001900D920020E1F7089510E0C2E6D0E0F3
:1020E00004C0FE010E945B0E2196C336D107C9F7DA
:0420F000F894FFCF92
:1020F4000000D30780000D0000000000F801DB079A
:102104008D003F02BE009C00B000000000001201E0
:10211400DB07A001110166017E01F90054696D65B8
:102124004F75742077616974696E6720666F7220D9
:10213400726573706F6E73653A204572726F7220A8
:102144007768696C653A2000436C6F73696E672029
:1021540066696C653A00636C6F73696E67206669C3
:102164006C65003E46696C6520636C6F7365642022
:102174007375636365737366756C6C792E003E4684
:1021840061696C656420746F20636C6F736520668D
:10219400696C652E204572726F7220636F64653AB4
:1021A400000D0A0057726974696E6720746F2066A7
:1021B400696C653A0044617461204C656E677468AB
:1021C4003A0073657474696E672064617461204CAD
:1021D400656E6774680077726974696E67206461FC
:1021E400746120746F2066696C6500577269746548
:1021F40020636F646520286E6F726D616C6C79204A
:10220400464620616E64203134293A20002C007542
:1022140070646174696E672066696C652073697A9D
:1022240065004F70656E696E672066696C652E0087
:1022340066696C65204F70656E003E46696C65206A
:102244006F70656E6564207375636365737366751B
:102254006C6C792E003E4661696C656420746F2055
:102264006F70656E2066696C652E004D6F756E74B7
:10227400696E6720555342206469736B006D6F75F6
:102284006E74696E6720555342206469736B003E17
:10229400555342204D6F756E746564202D204F4B4D
:1022A400003E4661696C656420746F204D6F756EE5
:1022B4007420555342206469736B2E004368656330
:1022C4006B696E6720555342206469736B20636F9A
:1022D4006E6E656374696F6E2073746174757300D8
:1022E400436F6E6E656374696E6720746F20555317
:1022F40042206469736B003E436F6E6E656374695C
:102304006F6E20746F20555342204F4B003E436F35
:102314006E6E656374696F6E20746F20555342202E
:102324002D204641494C45442E0053657474696E12
:10233400672066696C656E616D6520746F3A005440
:10234400686520434833373653206D6F64756C6578
:1023540020686173206265656E2072657365742000
:10236400210047657474696E672046696C65205363
:10237400697A650046696C6553697A65203D005247
:10238400656164696E672066696C653A00636F6EA7
:1023940074696E756552656164007365744279741D
:1023A4006552656164004E4F204D4F5245204441B3
:1023B40054410072656164696E67206461746100F0
:1023C4003D3D3D3D3D3D3D3D3D3D3D3D3D3D3D3D39
:1023D4003D3D3D3D3D3D002D2D2D2D2D2D2D2D2DF6
:1023E4002D2D2D2D2D2D2D2D2D2D2D2D2D005768E1
:1023F400617420697320746865206D65616E696E0F
:1024040067206F66206C696665203F003432007374
:1024140065745F5553425F4D6F646520636F6D6DE6
:10242400616E642061636B6E6F776C65646765646D
:10243400005553422069732070726573656E740091
:10244400555342204E6F742070726573656E742EFE
:10245400204572726F7220636F64653A00480043CE
:102464004833373635206572726F7221202020453B
:1024740072726F7220636F64653A00434F4D4D4131
:102484004E44313A20434845434B20434F4E4E453A
:102494004354494F4E00636865636B696E672063FC
:1024A4006F6E6E656374696F6E003E436F6E6E652A
:1024B4006374696F6E20746F20434833373653203A
:1024C400776173207375636365737366756C2E002F
:1024D4003E436F6E6E656374696F6E20746F204344
:1024E4004833373653202D204641494C45442E006D
:1024F400434F4D4D414E44323A207365745F5553FA
:10250400425F4D6F646500434F4D4D414E44333A35
:10251400207265736574414C4C00434F4D4D414EE0
:1025240044343A2043726561746520616E642057B7
:102534007269746520746F2046696C65203A205472
:10254400455354342E545854006372656174696E53
:10255400672066696C6500434F4D4D414E44353AE2
:1025640020526561642046696C653A205445535491
:10257400342E54585400434F4D4D414E44363A2066
:10258400417070656E64206461746120746F2066AC
:10259400696C653A2054455354342E54585400738E
:1025A400657474696E672066696C6520706F696E06
:1025B40074657200506F696E74657220737563631D
:1025C40065737366756C6C79206170706C69656491
:1025D40000434F4D4D414E44373A2044656C657479
:1025E400652046696C653A2054455354342E54583A
:1025F400540064656C6574696E672066696C650077
:102604005375636365737366756C6C792064656C6C
:10261400657465642066696C6500434F4D4D414E99
:1026240044383A20526561642046696C653A205406
:10263400455354322E54585400434F4D4D414E444B
:10264400393A20526561642046696C653A205445E4
:102654005354332E54585400434833373653206868
:102664006173206A7573742073656E74207468696D
:102674007320636F64653A0046696C6520636F7507
:102684006C64206E6F74206265206372656174658A
:10269400642C206F7220697420616C7265616479A6
:0826A40020657869737473006E
:107E0000112484B714BE81FFF0D085E080938100F7
:107E100082E08093C00088E18093C10086E0809377
:107E2000C20080E18093C4008EE0C9D0259A86E02C
:107E300020E33CEF91E0309385002093840096BBD3
:107E4000B09BFECF1D9AA8958150A9F7CC24DD24C4
:107E500088248394B5E0AB2EA1E19A2EF3E0BF2EE7
:107E6000A2D0813461F49FD0082FAFD0023811F036
:107E7000013811F484E001C083E08DD089C08234E0
:107E800011F484E103C0853419F485E0A6D080C0E4
:107E9000853579F488D0E82EFF2485D0082F10E0AE
:107EA000102F00270E291F29000F111F8ED06801E7
:107EB0006FC0863521F484E090D080E0DECF843638
:107EC00009F040C070D06FD0082F6DD080E0C81688
:107ED00080E7D80618F4F601B7BEE895C0E0D1E017
:107EE00062D089930C17E1F7F0E0CF16F0E7DF06D8
:107EF00018F0F601B7BEE89568D007B600FCFDCFD4
:107F0000A601A0E0B1E02C9130E011968C91119780
:107F100090E0982F8827822B932B1296FA010C0160
:107F200087BEE89511244E5F5F4FF1E0A038BF0790
:107F300051F7F601A7BEE89507B600FCFDCF97BE46
:107F4000E89526C08437B1F42ED02DD0F82E2BD052
:107F50003CD0F601EF2C8F010F5F1F4F84911BD097
:107F6000EA94F801C1F70894C11CD11CFA94CF0C13
:107F7000D11C0EC0853739F428D08EE10CD085E9AC
:107F80000AD08FE07ACF813511F488E018D01DD067
:107F900080E101D065CF982F8091C00085FFFCCF94
:107FA0009093C60008958091C00087FFFCCF809118
:107FB000C00084FD01C0A8958091C6000895E0E648
:107FC000F0E098E1908380830895EDDF803219F02E
:107FD00088E0F5DFFFCF84E1DECF1F93182FE3DFCA
:107FE0001150E9F7F2DF1F91089580E0E8DFEE27F6
:047FF000FF270994CA
:027FFE00040479
:0400000300007E007B
:00000001FF